:020000040800F2
:1000000000100020B1120008F9120008F9120008CF
:10001000F9120008F9120008F912000800000000A7
:10002000000000000000000000000000F9120008BD
:10003000F912000800000000F9120008F912000887
:1000400000000000000000000000000000000000B0
:1000500000000000000000000000000000000000A0
:100060000000000000000000000000000000000090
:100070000000000000000000000000000000000080
:100080000000000000000000000000000000000070
:100090000000000000000000000000000000000060
:1000A0000000000000000000000000000000000050
:1000B0000000000000000000000000000000000040
:1000C0000000000000000000000000000000000030
:1000D0000000000000000000000000000000000020
:1000E0000000000000000000000000000000000010
:1000F0000000000000000000000000000000000000
:1001000000000000000000000000000000000000EF
:1001100000000000000000000000000000000000DF
:1001200000000000000000000000000000000000CF
:1001300000000000000000000000000000000000BF
:1001400000000000000000000000000000000000AF
:10015000000000000000000000000000000000009F
:10016000000000000000000000000000000000008F
:10017000000000000000000000000000000000007F
:08018000000000000000000077
:1001880002B4714649084900095C49008E4402BC22
:100198007047C046002934D00123002210B4884299
:1001A8002CD301242407A14204D2814202D209019E
:1001B8001B01F8E7E400A14204D2814202D24900BF
:1001C8005B00F8E7884201D3401A1A434C08A04262
:1001D80002D3001B5C0822438C08A04202D3001BF8
:1001E8009C082243CC08A04202D3001BDC0822430F
:1001F800002803D01B0901D00909E3E7100010BC4F
:10020800704701B5002000F00BF802BD0029F8D0B6
:1002180003B5FFF7C1FF0EBC4243891A1847C04611
:100228007047C04610B5064C2378002B07D1054B04
:10023800002B02D0044800E000BF0123237010BD4A
:10024800FC0100200000000058130008044B10B502
:10025800002B03D00349044800E000BF10BDC0468E
:1002680000000000000200205813000813B5002405
:10027800019400F0EBFA6A461480911C1388312B24
:100288000DD900F0EBFA0421722001AA00F072F9EE
:100298000B4B0198C018431E9841000116BD0C80F5
:1002A8000B88312B04D9138801339BB21380E5E7FF
:1002B800019B013301930B8801339BB20B80EFE75D
:1002C8003CF6FFFF37B51D006B46DC1D0523237088
:1002D80000F0BCFA2B78A23B5A425341237000F03D
:1002E800BDFA22000121722000F044F900203EBD31
:1002F80030B585B002AD0622124928001C0001F075
:100308001DF801236A46D37100F0A0FA00231A00F1
:10031800A85CA15C0132091A481E81410B43052AD9
:10032800F6D1002B02D000236A46D37100F096FA6A
:100338006B4601217220DA1D00F01CF9002005B07F
:1003480030BDC0467313000813B5012000F0BCFA95
:10035800002000F0B1FA6B46DC1D0023237000F08A
:1003680075FA00F07BFA2378022BFCD1012000F00B
:10037800A3FA012000F0A0FA012000F09DFA012064
:1003880000F09AFA012000F097FA012000F094FAA0
:10039800012000F091FA012000F08EFA012000F00F
:1003A8008BFA722000F07AFA422000F077FA522095
:1003B80000F074FA452000F071FA412000F06EFA5E
:1003C8004B2000F06BFA4F2000F068FA552000F03F
:1003D80065FA542000F062FA0A2000F05FFA012062
:1003E80000F06AFA012000F067FA012000F064FAD0
:1003F800012000F061FA012000F05EFA012000F00F
:100408005BFA012000F058FA012000F055FA0020AC
:1004180016BD000010B500F069F900F093F900F07E
:10042800D1F9722000F03AFA522000F037FA45204C
:1004380000F034FA532000F031FA452000F02EFA8B
:10044800542000F02BFA202000F028FA202000F099
:1004580025FA202000F022FA0A2000F01FFA00F006
:1004680079F800210A4A672000F056F80121094A64
:10047800632000F051F80521074A012000F04CF8EC
:1004880000216920054A00F047F800F0C5F8FCE7AC
:1004980075020008CD020008F9020008510300089F
:1004A800030030B541184D2500208B4200D130BDE6
:1004B80008241A78504042B24000C0B2002A02DA3A
:1004C80052006A40D0B2013C002CF4D10133ECE771
:1004D8000022012330B5441C8B4201D3002030BDDB
:1004E8002578002D02D19D1A85541A000133DBB2FC
:1004F8000134F1E730B500250478020005702000CA
:10050800884201D2002C00D130BD145C13180019A8
:100518001D70C0B2F4E7000070B50C4E34681F2C93
:1005280004DD612000F0BAF9012070BDF82901D975
:100538006220F7E70C256543054B0134E8545B1945
:10054800002059609A603460EFE7C046040000203C
:100558000800002010B50021044A7620FFF7DCFFD0
:1005680000217720024AFFF7D7FF10BDCF0500080A
:10057800E5050008F0B50C00C1B0002A1CD06D4696
:10058800002368702B70A9709C4217DC6B46A11C75
:10059800C9B2581CFFF784FF00262B19271D053404
:1005A800D870E1B22800EE55FFF792FFA85D01363A
:1005B80000F074F9B742F9DA41B0F0BDD05CE9183F
:1005C800C8700133E0E707B503236A467220D37188
:1005D80001210732FFF7CEFF00200EBD70B50C4B8E
:1005E80088B019686A4600230C250A4CC8B28342B1
:1005F80006DB7220C9B2FFF7BDFF002008B070BD4E
:100608002E005E43365DD6540133DBB2EFE7C046B9
:100618000400002008000020F0B50024C3B002AB9D
:10062800DC7000F023F903AD6055002809D10523DB
:1006380002AAD370012165200332FFF79BFF43B064
:10064800F0BD0134042CECD121002800FFF752FF43
:10065800002601900C20234B23491A686B78964298
:1006680009DB01239642E3D0EB78019A05339342E4
:100678000FDA0423DCE7070077437F5C9F42F3D05F
:100688000136F6B2EBE700F0F1F828550028CED095
:100698000134EB780433A342F5DA00F0E7F8285583
:1006A8000028E6D1019BE7B2F91A0131C9B2E8186E
:1006B800FFF720FF023F02AB581DF9B2FFF7F0FE2B
:1006C8002C19013C227802238242B1D10C247443B4
:1006D800054BEA781B199C68A97804AB6878A04791
:1006E8000300A5E70400002008000020902070B552
:1006F800042300240125032696B005A9C005059307
:1007080006950794089600F057FB9020102305A93A
:10071800C005059306950794089600F04DFB052340
:100728000AA80B930A960D94139400F0DDF807239A
:10073800210001A8019302950394049400F0B2FAF1
:1007480016B070BD802270B51B4C9202636988B0E8
:10075800134363616369902013400193019BC02395
:10076800DB00012503260393022303A9C005049394
:1007780005950795069600F01FFB8022A369D20114
:100788001343A361A3690D4813400293029B236B93
:10079800B3431D430A4B25630360E1239B02436077
:1007A80000238360C360036183610C33436100F0FD
:1007B8006DFC08B070BDC0460010024088010020E2
:1007C8000038014080219020F0B50124002503263F
:1007D80080271D4B89025A6987B00A435A615B69B1
:1007E800C0050B40009301A9009B01970294039553
:1007F800049600F0E1FA9020102301A9C0050193A6
:1008080002940395049600F0D7FA9020042301A9D6
:10081800C005019302940395049600F0CDFA902048
:100828002A003900C00500F079FB90202200102131
:10083800C00500F073FB902022000421C00500F0E1
:100848006DFB07B0F0BDC04600100240902010B507
:1008580001228021C00500F061FB10BD902010B579
:1008680000228021C00500F059FB10BD37B50824CF
:100878006B46DD1D012232232900064800F038FCB2
:10088800002801D128783EBD034A136A2343136226
:10089800EEE7C046880100200038014007B56B46E6
:1008A800D91D087001220248024B00F097FC07BDD1
:1008B8008801002088130000C2B2902010B51021D2
:1008C800C00500F02BFB10BDC2B2902010B504216A
:1008D800C00500F023FB10BD024B1868421C1A60CB
:1008E8007047C046F8010020F0B50368040085B0E1
:1008F800DB072FD423689B0700D581E023681B07FB
:1009080000D5BCE023685B0700D5DFE02368DB0681
:100918001AD562690423B44D012A00D048E1696BF5
:1009280002270B436B636B6B1A436A63FFF7D4FFB1
:1009380006006B6B3B4200D133E1F8216A6BA36977
:100948008A43DB0013436B63216A002900D057E117
:1009580000202AE00C22A44D6B681340042B06D01B
:100968006B681340082B0AD16B68DB0307D52B682B
:100978009B03BFD56368002BBCD1012015E06368D9
:10098800012B14D180232A685B0213432B60FFF7E5
:10099800A3FF80270600BF022B683B42AAD1FFF7BE
:1009A8009BFF801B6428F7D9032005B0F0BD002BFE
:1009B80016D12B688D4A802713402B602B688C4AF0
:1009C800BF0213402B60FFF787FF06002B683B42EE
:1009D80000D18FE7FFF780FF801B6428F6D9E3E793
:1009E800052B05D180232A68DB0213432B60C9E756
:1009F8002B687E4A13402B602B687D4A1340C5E75D
:100A08000C22794D6B68134206D06B681340082B93
:100A180010D16B68DB030DD42B689B0702D5E36804
:100A2800012BAAD1F8212A6823698A43DB001343E2
:100A38002B6063E7E2680123002A0FD02A680227A7
:100A480013432B60FFF748FF06002B683B42E9D1B0
:100A5800FFF742FF801B0228F7D9A5E72A6802277B
:100A68009A432A60FFF738FF06002B683B4200D103
:100A780044E7FFF731FF801B0228F6D994E7E269C3
:100A88000123594D002A10D06A6A022713436B626A
:100A9800FFF722FF06006B6A3B4200D032E7FFF700
:100AA8001BFF801B0228F6D97EE76A6A02279A4351
:100AB8006A62FFF711FF06006B6A3B4200D121E72B
:100AC800FFF70AFF801B0228F6D96DE78022002174
:100AD800454D5205EB690091134208D1EB69134368
:100AE800EB61EB6913400393039B01230093802779
:100AF800404E7F0033683B4215D0A368012B22D1BA
:100B08002A6A13432B62FFF7E7FE022706002B6AC7
:100B18003B423FD0009B012B00D0F7E6EB69364AF9
:100B28001340EB61F2E633683B433360FFF7D4FED2
:100B3800019033683B42E0D1FFF7CEFE019BC01A1B
:100B48006428F6D930E70122002B14D12B6A02273A
:100B580093432B622B6A033293432B62FFF7BCFE4D
:100B680006002B6A3B42D5D0FFF7B6FE234B801B0D
:100B78009842F6D918E7052B05D1296A013B0B43A2
:100B88002B622B6ABDE72B6A934304222B622B6AE4
:100B98009343B7E7FFF7A0FE184B801B9842B6D9DE
:100BA80002E7FFF799FE801B022800D8C1E6FBE6A2
:100BB800053203D16A6B9A436A63BEE66A6B022701
:100BC800134301226B636B6B93436B63FFF784FEE4
:100BD80006006B6B3B4200D1B6E6FFF77DFE801B3B
:100BE8000228F6D9E0E6C04600100240FFFFFEFFEB
:100BF800FFFFFBFF00700040FFFFFFEF88130000BE
:100C08000C22254D6B681340082B00D1B5E62B68E4
:100C1800224A13402B6002292FD1FFF75DFE80275F
:100C28000600BF042B683B4221D10F22EB6A8026C5
:100C38009343E26AB6041343EB62616AA36A6A6883
:100C48000B4317490A4013436B6080232A685B04EF
:100C580013432B60FFF740FE04002B68334200D09B
:100C680076E6FFF739FE001B0228F6D99CE6FFF767
:100C780033FE801B0228D5D996E6FFF72DFE802685
:100C88000400B6042B68334200D161E6FFF724FE66
:100C9800001B0228F6D987E600100240FFFFFFFE7E
:100CA800FFFFC2FFF7B501223E4D04002B680F007D
:100CB80013408B4212D32268930719D4D2071FD44A
:100CC80001232A681A40BA425DD823685B0761D4B9
:100CD800E122354BD20300201A6008E02B689343C9
:100CE8000B432B602B6813408B42E4D00120FEBDE0
:100CF800F0202E494B688343A06803434B60DDE72F
:100D08002A4E62683368012A1AD19B03EED5032163
:100D180073688B4313437360FFF7DEFD63680190CC
:100D2800012B15D10C2273681340042BC8D0FFF790
:100D3800D3FD019BC01A1E4B9842F3D90320D6E776
:100D4800022A02D19B01E2D4D0E79B07DFD4CDE78A
:100D5800022B12D00C2273681342B1D0FFF7BCFDEE
:100D6800019BC01A124B9842F4D9E7E7FFF7B4FD8C
:100D7800019BC01A0E4B9842E0D80C2273681340AE
:100D8800082BF3D19CE72A689A432A602A681A42FA
:100D98009BD0ABE7054A074953680B40E1680B4312
:100DA800536095E700200240000000200010024038
:100DB80088130000FFF8FFFF0023F0B587B00A682A
:100DC8001400DC4001D107B0F0BD012614009E409C
:100DD80034400294324200D192E04A6815000192F0
:100DE800102295430395022D0FD107240F251C408F
:100DF800A400A540DA0892008218176AAF43BC46DF
:100E08000F69A74064462743176203225C00A2408B
:100E1800D543AC46032507689743019A2A40A24068
:100E2800039D3A43013D0260012D0DD86246856855
:100E38001540CA68A2402A438260019A456812098F
:100E48009A40B5432A4342606246C56815408A689D
:100E5800A24080242A43C260019A640522424FD0EE
:100E68000125284A90279469FF052C4394619269CB
:100E78009C082A400592059A234AA400A4180F2228
:100E880002351D40AD00AA40A66896430022B8422C
:100E98000CD01E4F0132B84208D01D4F0132B84263
:100EA80004D01C4F0332B84200D1023AAA40324360
:100EB800A260194A029C1668029D019FE4433543CB
:100EC800FF0301D43500254015605668029D019F37
:100ED8003543BF0301D43500254055609668029D0F
:100EE800019F3543FF0201D4350025409560D56840
:100EF800029E019F2E43BF0201D425402E00D660DA
:100F080001335CE700100240000001400004004883
:100F180000080048000C004800040140002A01D0E5
:100F2800816170478162FCE7F7B504000E00170085
:100F380001932568EB6933409B1B5A425341BB42DE
:100F480001D0002017E0089B0133F3D0089B002B49
:100F580012D12B680C4A032013402B60AB68A332D4
:100F6800FF3293432200AB60202369321370537021
:100F7800002368342370FEBDFFF7AEFC019BC01A46
:100F8800089B9842D5D9E4E75FFEFFFF030070B5E0
:100F98009A681D6904682A435D69C1692A43206803
:100FA800334D0A43284002432260626831481D6A73
:100FB8000240D868024362609A69A0682A432E4DAD
:100FC8002840024303208025A2602C4A2D02126B80
:100FD8000240013A022A37D82948805CA94214D134
:100FE80008280FD8FFF7CCF8320E050E320E0E0E79
:100FF80009005968234B48082CE0596880234808A1
:101008005B0227E00120002329E008281AD8FFF70F
:10101800B7F80F1905190F191919140059681A4B3F
:101028004808C018FFF7B6F880B2E06000201DE05D
:101038005968E1234808DB03F3E759688023480827
:101048001B02EEE7012011E0A942F1D15968E12322
:1010580048081B04C018FFF79DF883B20020190048
:101068000F221B0791435B0F0B43E36070BDC04623
:10107800F369FFFFFFCFFFFFFFF4FFFF00100240FF
:10108800701300080048E8010024F400F8B5041EB5
:1010980001D10120F8BD070069373B78DAB2002B8F
:1010A80002D1030068331A70242301263B70256897
:1010B80020002B68B3432B60FFF768FFB042E8D0ED
:1010C8006B680A4A2100134008226B60AB686A31DA
:1010D8009343AB602B6818321E4300232E6068349C
:1010E80063603A700A702370D4E7C046FFF7FFFFC9
:1010F800F0B585B0039303006A3316001A7804002C
:101108000D000220202A3BD10138002938D0002EBA
:1011180036D08022A1685201914204D12269002A66
:1011280001D105422CD12200683211780220012910
:1011380026D0012111700022E26622321A70FFF7D0
:10114800CBFB23008021A26858331E805E8002906A
:10115800490104338A4217D12269002A12D11E4A52
:101168001A8080271E887F0122005A32138898B27D
:10117800002B10D1230020226A3368341A702070A3
:1011880005B0F0BDFF22EBE7002AEAD12269002A68
:10119800F8D07F22E4E713882021013B9BB213801B
:1011A800039B002200932000029BFFF7BDFE00284E
:1011B80010D1A2682368BA4207D12269002A04D153
:1011C8009B8C33402B800235CEE79B8C33402B70B1
:1011D8000135C9E70320D3E7FF010000F0B5070098
:1011E80085B0039369373B7804000D001600022090
:1011F800202B46D10138002943D0002A41D0802332
:10120800A2685B019A4204D12369002B01D10142F3
:1012180037D1230068331A780220012A31D00122FD
:101228001A700023E36621333B70FFF755FB230058
:1012380050331E805E808026029076012100523154
:101248000B889AB2002B0DD1039B402100932000FC
:10125800029BFFF769FE002812D1202368343B70F7
:1012680020700EE00B880022013B9BB20B80039B91
:10127800802100932000029BFFF756FE002802D031
:10128800032005B0F0BDA3682268B34208D12369E2
:10129800002B05D12B880235DB05DB0D1385CDE747
:1012A8002B7801351385C9E7002103E00B4B5B5808
:1012B800435004310A480B4B42189A42F6D30A4A63
:1012C80002E0002313600432084B9A42F9D300E08D
:1012D80000BF00F00FF8FFF79DF8FEE78413000841
:1012E8000000002004000020040000201802002054
:1012F800FEE7000070B500260C4C0D4D641BA410D1
:10130800A64209D1002600F023F80A4C0A4D641BB6
:10131800A410A64205D170BDB300EB58984701361A
:10132800EEE7B300EB5898470136F2E77C13000864
:101338007C130008801300087C130008002310B5F4
:101348009A4200D110BDCC5CC4540133F8E70000C8
:10135800F8B5C046F8BC08BC9E467047F8B5C0460C
:08136800F8BC08BC9E4670476A
:0C137000040802746F7563680000000040
:04137C00550200080E
:041380002D02000832
:0413840000127A00D9
:04000005080012B12C
:00000001FF
